:100000000C94F4000C941C010C941C010C941C0125
:100010000C941C010C941C010C941C010C941C01EC
:100020000C941C010C941C010C941C010C941C01DC
:100030000C941C010C941C010C941C010C941C01CC
:100040000C94610F0C941C010C94D10F0C94AB0F09
:100050000C941C010C941C010C941C010C941C01AC
:100060000C941C010C941C014E414E494E495459AC
:10007000494E46CDCCCC3D0AD7233C17B7D1387773
:10008000CC2B329595E6241FB14F0A000020410089
:1000900000C84200401C4620BCBE4CCA1B0E5AAED3
:1000A000C59D744255535900202A00455331204EB6
:1000B000256C7500455330204E256C750045543035
:1000C000204E256C7500454D30204E256C75004541
:1000D0003035204E256C7500453034204E256C752A
:1000E00000453033204E256C7500453032204E25BA
:1000F0006C7500453031204E256C75004F4B30201B
:100100004E256C7500202A00000000002300260008
:1001100029004445455020534C45455000534C451B
:100120004550204D4F44450049444C45204D4F44D7
:100130004500212121200057414B452046524F4D7B
:10014000200053697374656D612070726F6E746FF7
:100150002E00202F20004672656520686561703A88
:100160002000506C6174666F726D3A2000417676A3
:10017000696F206669726D77617265203344502E15
:100180002E2E0053697374656D612070726F6E74EA
:100190006F2E0000000000240027002A000000004D
:1001A00000250028002B00040404040404040402B5
:1001B0000202020202030303030303010204081004
:1001C00020408001020408102001020408102020B1
:1001D0002A000000000800020100000304070000DC
:1001E000000000000000031011241FBECFEFD8E074
:1001F000DEBFCDBF24E0A6E5B3E001C01D92A0386C
:10020000B207E1F713E0A0E0B1E0E0E3F1E402C0FF
:1002100005900D92A635B107D9F710E0C4EFD0E0F4
:1002200004C02197FE010E944620C33FD107C9F7B1
:100230000E9457100C9496200C940000833081F09B
:1002400028F4813099F08230A9F008958730A9F020
:100250008830C9F08430B1F4809180008F7D03C074
:10026000809180008F7780938000089584B58F7788
:1002700084BD089584B58F7DFBCF8091B0008F77CA
:100280008093B00008958091B0008F7DF9CF1F93C7
:10029000CF93DF93282F30E0F901EE52FE4F849187
:1002A000F901E554FE4FD491F901E955FE4FC4918F
:1002B000CC23A9F0162F81110E941E01EC2FF0E033
:1002C000EE0FFF1FE356FE4FA591B4918FB7F89440
:1002D000EC91111108C0D095DE23DC938FBFDF9124
:1002E000CF911F910895DE2BF8CFCF93DF9390E04D
:1002F000FC01E554FE4F249189559E4FFC018491E9
:100300008823D1F090E0880F991FFC01ED56FE4F35
:10031000A591B491FC01E356FE4FC591D491623092
:1003200071F49FB7F8943C91822F809583238C932E
:10033000E8812E2B28839FBFDF91CF9108958FB73F
:10034000F894EC912E2B2C938FBFF6CFCF93DF93A5
:10035000EC0161E080E10E947501209731F460E0DA
:1003600080E1DF91CF910C944701CF3FD10511F48B
:1003700061E0F6CFE2EEF1E0E491E33029F140F400
:10038000E130B1F0E230D9F0C038D1058CF7E7CFD9
:10039000E73021F1E83051F1E430B1F7809180008D
:1003A000806280938000D0938B00C0938A0004C049
:1003B00084B5806884BDC7BDDF91CF91089584B5B1
:1003C000806284BDC8BDF8CF809180008068809332
:1003D0008000D0938900C0938800EECF8091B00058
:1003E00080688093B000C093B300E6CF8091B000E6
:1003F00080628093B000C093B400DECF823091055C
:1004000038F0880F991F880F991F05970197F1F70A
:1004100008953FB7F8948091C5039091C603A091C9
:10042000C703B091C80326B5A89B05C02F3F19F09C
:100430000196A11DB11D3FBFBA2FA92F982F882764
:10044000BC01CD01620F711D811D911D42E0660F3F
:10045000771F881F991F4A95D1F708958F929F9211
:10046000AF92BF92CF92DF92EF92FF920E94090269
:100470004B015C0188ECC82ED12CE12CF12C0E94A0
:100480000902681979098A099B09683E7340810548
:100490009105A8F321E0C21AD108E108F10888EE1D
:1004A000880E83E0981EA11CB11CC114D104E10484
:1004B000F10429F7FF90EF90DF90CF90BF90AF90BD
:1004C0009F908F9008952FB7F8946091C103709119
:1004D000C2038091C3039091C4032FBF089580E0AD
:1004E000089580E0089580E00895AF92BF92CF9282
:1004F000DF92EF92FF920F931F93CF93DF936C01E4
:100500007B018B01040F151FEB015E01AE18BF08C4
:10051000C017D10759F06991D601ED91FC91019076
:10052000F081E02DC6010995892B79F7C501DF918E
:10053000CF911F910F91FF90EF90DF90CF90BF90E0
:10054000AF900895FC01538D448D252F30E0842F0A
:1005500090E0821B930B541710F0CF9608950197EB
:100560000895FC01918D828D981761F0A28DAE0FD8
:10057000BF2FB11D5D968C91928D9F5F9F73928F5F
:1005800090E008958FEF9FEF0895FC01918D828D8B
:10059000981731F0828DE80FF11D858D90E0089558
:1005A0008FEF9FEF0895FC01918D228D892F90E0B0
:1005B000805C9F4F821B91098F739927089589EC66
:1005C00093E00E94D30221E0892B09F420E0822FDE
:1005D000089580E090E0892B29F00E94DF028111CC
:1005E0000C9400000895FC01A48DA80FB92FB11D33
:1005F000A35ABF4F2C91848D90E001968F73992759
:10060000848FA689B7892C93A089B1898C91837036
:1006100080648C93938D848D981306C00288F3892F
:10062000E02D80818F7D80830895EF92FF920F935C
:100630001F93CF93DF93EC0181E0888F9B8D8C8D8E
:1006400098131AC0E889F989808185FF15C09FB782
:10065000F894EE89FF896083E889F9898081837045
:10066000806480839FBF81E090E0DF91CF911F91F4
:100670000F91FF90EF900895F62E0B8D10E00F5F15
:100680001F4F0F731127E02E8C8D8E110CC00FB6EB
:1006900007FCFACFE889F989808185FFF5CFCE0183
:1006A0000E94F302F1CFEB8DEC0FFD2FF11DE35A09
:1006B000FF4FF0829FB7F8940B8FEA89FB89808106
:1006C0008062CFCF0F931F93CF93DF938C01D0E045
:1006D000C0E0F801EC0FFD1F6491662341F089EC46
:1006E00093E00E941503892B11F02196F2CFCE01E1
:1006F000DF91CF911F910F910895CF93DF93EC017C
:10070000888D8823B9F0AA89BB89E889F9898C91F9
:1007100085FD03C0808186FD0DC00FB607FCF7CFB5
:100720008C9185FFF2CF808185FFEDCFCE010E94B5
:10073000F302E9CFDF91CF9108954F925F926F92CC
:100740007F928F929F92AF92BF92CF92DF92EF9261
:10075000FF920F931F93CF93DF934B01D82FC92F95
:1007600029013A019701A8010E948D1D87FF03C04E
:100770004701D02FC12F9501A601B4018D2F9C2FC9
:100780000E941A2018161CF44501DC2DCD2D20E006
:1007900030E040E752E4B4018D2F9C2F0E94721F7D
:1007A000A30192010E94F31D6B017C0120E030E067
:1007B000A9010E948D1D18163CF5A701960160E065
:1007C00070E080E89FE30E94721F20E034E244E77B
:1007D00059E40E94F31D0E94EB1FCB01683C710598
:1007E00010F488EC90E0DF91CF911F910F91FF9072
:1007F000EF90DF90CF90BF90AF909F908F907F90C1
:100800006F905F904F90089584EF91E0ECCFFC01E2
:1008100084818F3F21F091E069270C94470108956E
:100820000F931F93CF93DF938C0161E0FC018281D2
:100830000E944701C3E0D0E0CE010197F1F760E0EC
:10084000F80182810E9447012197F1F7DF91CF9152
:100850001F910F910895FC012581222311F021E0C1
:100860006227FC0183810C9447011F93CF93DF9390
:10087000EC01162F61E08A810E94750161E08B8195
:100880000E9475018C818F3F39F061E00E947501F3
:1008900060E08C810E9447011D83DF91CF911F9101
:1008A000089581E0089589EC93E00C947D03CB01D9
:1008B0000C94620389EC93E00C94750289EC93E04C
:1008C0000C94150389EC93E00C94B10289EC93E04D
:1008D0000C94D30289EC93E00E947D03E9ECF3E0F1
:1008E000A289B3898C918F7E8C93A289B3898C91D4
:1008F000877F8C93A289B3898C918F778C93A289FF
:10090000B3898C918F7D8C93828D818F0895CF9246
:10091000DF92EF92FF926A017B01E091D903F0919F
:10092000DA0382E08083C11481EED806E104F10489
:10093000A1F060E079E08DE390E0A70196010E94CC
:100940002420215031094109510956954795379581
:100950002795211580E13807A8F0E091D903F0919F
:10096000DA03108260E874E88EE190E0A701960156
:100970000E9424202150310941095109569547957B
:1009800037952795E091D503F091D6033083E09118
:10099000D703F091D80320831092E103E091DD03A7
:1009A000F091DE0386E08083E091DB03F091DC03CD
:1009B000808180618083E091DB03F091DC038081A2
:1009C00088608083E091DB03F091DC0380818068A4
:1009D0008083E091DB03F091DC0380818F7D808355
:1009E000FF90EF90DF90CF900895CF92DF92EF923B
:1009F000FF92CF93609362037093630380936403C9
:100A00009093650320918203309183032430310554
:100A100029F16B017C01C1E020E030E0A9010E94D6
:100A20001A2018160CF0C0E06C2F8FE00E944701CE
:100A300020E030E0A901C701B6010E948D1D181603
:100A40006CF01092070110920801109209011092A7
:100A50000A0180910F018E7F80930F01CF91FF904B
:100A6000EF90DF90CF90089561E082E794E00E94DC
:100A7000350460E08CE694E00E94350461E086E68F
:100A800094E00E94350461E082E794E00E9407044C
:100A900061E08CE694E00E94070461E086E694E061
:100AA0000C94070467E371E080E091E00E94570432
:100AB00060917D0370917E0380E091E00E94610768
:100AC0008091810380FD0E94340510927E03109274
:100AD0007D030E94630228EE33E040E050E00E9474
:100AE00024203093800320937F0310928103089584
:100AF000FC0101900020E9F73197AF01481B590B29
:100B0000BC0189EC93E00C9475028F929F92AF9296
:100B1000BF920F931F93CF93DF93CDB7DEB7A1970B
:100B20000FB6F894DEBF0FBECDBF19A2423008F455
:100B30004AE08E010F5D1F4F842E912CB12CA12C09
:100B4000A50194010E942420E62FB901CA01EA30D0
:100B5000F4F4E05DD801EE938D01232B242B252B9B
:100B600079F790E080E0109719F0CD010E947805A8
:100B7000A1960FB6F894DEBF0FBECDBFDF91CF9127
:100B80001F910F91BF90AF909F908F900895E95C57
:100B9000E1CFCF92DF92EF92FF92CF93DF936B0181
:100BA0007C016DE289EC93E00E941503EC0166275D
:100BB0007727CB016C197D098E099F094AE00E94B5
:100BC00085058C0F9D1FDF91CF91FF90EF90DF90F7
:100BD000CF900895CF92DF92EF92FF92809184039D
:100BE000882329F1C0905A03D0905B03E0905C0306
:100BF000F0905D030E9463026C197D098E099F09C4
:100C0000683E73408105910590F083EA90E00E9470
:100C1000620381E791E00E9478050E94630260937D
:100C20005A0370935B0380935C0390935D03FF9082
:100C3000EF90DF90CF900895CF93DF93CB010E9488
:100C40006203EC0181E791E00E9478058C0F9D1F03
:100C5000DF91CF910895CF93DF93CB01D0E0C0E037
:100C6000009719F00E947805EC0181E791E00E945D
:100C700078058C0F9D1FDF91CF910895CB010097D0
:100C800011F00C94780590E080E00895CB01BA0152
:100C90004AE00C948505CF93DF93682F70E090E0D5
:100CA00080E04AE00E948505EC0181E791E00E9426
:100CB00078058C0F9D1FDF91CF9108954F925F9221
:100CC0006F927F928F929F92AF92BF92CF92DF925C
:100CD000EF92FF920F931F93CF936B017C01742EC1
:100CE000AC019B010E941F20882399F084E791E0CA
:100CF000CF911F910F91FF90EF90DF90CF90BF9019
:100D0000AF909F908F907F906F905F904F900C94DA
:100D1000780546015701E894B7F82FEF3FEF4FE70A
:100D20005FE7C501B4010E941F2081110DC02FEFA4
:100D30003FEF4FE75FE7C501B4010E948D1D181614
:100D40001CF488E791E0D4CF2FEF3FEF4FE75FE44B
:100D5000C701B6010E941A2018161CF48CE791E016
:100D6000C7CF2FEF3FEF4FE75FECC701B6010E94FF
:100D70008D1D87FDF3CF20E030E0A901C701B6014A
:100D80000E948D1D10E000E087FF0AC06DE289EC33
:100D900093E00E9415038C01F7FAF094F7F8F094B1
:100DA000C0E060E070E080E09FE37C1641F020E06E
:100DB00030E040E251E40E94721FCF5FF6CFA701FE
:100DC00096010E94061F2B013C010E94EB1F4B0164
:100DD0005C014AE00E9485057C01E00EF11ECC23F7
:100DE000C1F1C501B4010E94921D9B01AC01C30178
:100DF000B2010E94051F4B015C016EE289EC93E099
:100E00000E941503E80EF91EC15018F120E030E0F1
:100E100040E251E4C501B4010E94F31D2B013C01E5
:100E20000E94EB1F4B01B12CA12C4AE0C501B4017B
:100E30000E948505E80EF91EC501B4010E94921DAD
:100E40009B01AC01C301B2010E94051F4B015C0173
:100E5000DBCFC701CF911F910F91FF90EF90DF90F3
:100E6000CF90BF90AF909F908F907F906F905F904A
:100E70004F900895CF93DF93CB01BA01422F0E9488
:100E80005E06EC0181E791E00E9478058C0F9D1FC2
:100E9000DF91CF910895CB01BA01422F0C945E06E9
:100EA000CF93DF93CB01BA014AE00E948505EC01A4
:100EB00081E791E00E9478058C0F9D1FDF91CF9113
:100EC0000895CF93DF93072E000C880B990B97FFA3
:100ED0000CC00E94C905EC0181E791E00E947805F1
:100EE0008C0F9D1FDF91CF9108954AE00E948505E8
:100EF000F2CF072E000C880B990B97FD0C94C905B7
:100F00004AE00C9485054F925F926F927F92BF9258
:100F1000CF92DF92EF92FF920F931F93CF93DF93C5
:100F2000CDB7DEB7C054D1090FB6F894DEBF0FBEFF
:100F3000CDBF7F936F939F938F9380E891E09F93B2
:100F40008F931F9280E48F93CE0101966C019F9343
:100F50008F930E946620F6010FB6F894DEBF0FBE95
:100F6000CDBF10E08191882311F01827FBCF93E0CB
:100F7000F92E2AE0B22EC6010E9478058FEC91E08E
:100F80000E946203812F0E944B0689EC93E00E942D
:100F90007D0389EC93E00E94D302892B29F089EC30
:100FA00093E00E94B102F5CF0E9463022B013C0145
:100FB0000E9463026419750986099709603D7740AC
:100FC00081059105C0F0FA94F110D5CFC05CDF4FD8
:100FD0000FB6F894DEBF0FBECDBFDF91CF911F914A
:100FE0000F91FF90EF90DF90CF90BF907F906F9028
:100FF0005F904F90089589EC93E00E94D30204978C
:10100000BCF289EC93E00E94B10281349105D9F6DB
:1010100083E0E82E00E089EC93E00E94B10290EDBD
:10102000980F9A3080F60B9D800D112400ED080F6B
:10103000EA94E110F0CF0113C6CFC8CF0F931F93EE
:10104000CF93DF93CDB7DEB760970FB6F894DEBFCE
:101050000FBECDBF1F921F921F921F921F921F9211
:101060008AE891E09F938F931F9280E18F938E0186
:101070000F5F1F4F1F930F930E946620B80183E9F3
:1010800091E00E9483070FB6F894DEBF0FBECDBF7C
:1010900060960FB6F894DEBF0FBECDBFDF91CF9143
:1010A0001F910F910895EF92FF921F93CF93DF93BB
:1010B000CDB7DEB7C054D1090FB6F894DEBF0FBE6E
:1010C000CDBF7F936F939F938F9384E891E09F931D
:1010D0008F931F9280E48F93CE0101967C019F93A2
:1010E0008F930E946620F7010FB6F894DEBF0FBE03
:1010F000CDBF10E08191882311F01827FBCFC701E5
:101100000E94780585E091E00E946203812F0E9491
:101110004B06C05CDF4F0FB6F894DEBF0FBECDBFED
:10112000DF91CF911F91FF90EF9008952F923F9202
:101130004F925F926F927F928F929F92AF92BF92E7
:10114000CF92DF92EF92FF920F931F93CF93DF9393
:10115000CDB7DEB7A0970FB6F894DEBF0FBECDBFF8
:101160003C011B012801C701B60185017401ADA82E
:10117000BEA8CFA8D8AC0E949D037C0160EB72E0B2
:1011800087E991E00E94530861E0C3010E942B04AB
:1011900010E000E0F101099581110BC00E94EA0501
:1011A000C3010E941004C7010E94FE010F5F1F4F80
:1011B000F1CF040D151D1F930F938BE991E09F93C1
:1011C0008F931F9280E18F938E010F5E1F4F1F93AD
:1011D0000F930E946620B80187E991E00E945308AE
:1011E0000E942E0260E0C3010E942B040FB6F89407
:1011F000DEBF0FBECDBF10E000E00E94EA05C301D4
:101200000E941004C7010E94FE010F5F1F4F40168D
:10121000510699F7512C412CF101099581110CC00F
:101220000E94EA05C3010E941004C7010E94FE014A
:10123000FFEF4F1A5F0AF0CF0E942E0261E0C30158
:101240000E942B04312C212C0E94EA05C3010E942C
:101250001004C7010E94FE018FEF281A380A0215F8
:10126000130591F7040D151D1F930F9381EA91E06B
:101270009F938F931F9280E18F938E010F5F1F4F7B
:101280001F930F930E946620B80187E991E00E94A6
:10129000530867EA71E087E991E00E9453080FB6AE
:1012A000F894DEBF0FBECDBFA0960FB6F894DEBF98
:1012B0000FBECDBFDF91CF911F910F91FF90EF90A7
:1012C000DF90CF90BF90AF909F908F907F906F9066
:1012D0005F904F903F902F90089560E082E794E0F8
:1012E0000E94070460E08CE694E00E94070460E03E
:1012F00086E694E00E94070460EB71E084EB91E0E5
:101300000C9453082F923F924F925F926F927F926C
:101310008F929F92AF92BF92CF92DF92EF92FF9205
:101320000F931F93CF93DF93CDB7DEB7A2970FB67E
:10133000F894DEBF0FBECDBF2B013C0119014A015D
:101340009F924F933F922F937F928F935F926F93D1
:1013500088EB91E09F938F931F9280E28F938E0191
:101360000F5F1F4F1F930F930E946620B80182ECFE
:1013700091E00E945308C301B2019F7720E030E062
:1013800040EA52E40E94F31D20E030E040E05FE3D9
:101390000E94061F0E94E41F7AA369A3A12CB12C0E
:1013A0008AEFC82E84E4D82EE12CF12C08EC12E44C
:1013B00020E030E040EA52E4622D732D882D992D13
:1013C0000E949D031C0111E020E030E0A901C3014F
:1013D000B2010E941A2087FD10E0612F88E794E097
:1013E0000E942B040FB6F894DEBF0FBECDBF912C28
:1013F000812C89A19AA1881699066CF40E94EA05AD
:1014000088E794E00E941004C1010E94FE019FEF52
:10141000891A990AEECFA2960FB6F894DEBF0FBED6
:10142000CDBFDF91CF911F910F91FF90EF90DF9093
:10143000CF90BF90AF909F908F907F906F905F9074
:101440004F903F902F900895CF93DF93EC018091C0
:101450007D0390917E03892B11F00E94520581E05B
:1014600080936C030E94630228EE33E040E050E07A
:101470000E94242030936E0320936D034BE050E0D4
:10148000BE018FE693E00E94572062E371E080E0A6
:1014900091E00E945704BE0180E091E00E942B067B
:1014A00060E08FE00E9447010E946D0990E080E0BB
:1014B0000E94A60184E090E09093830380938203CE
:1014C000DF91CF91089580910201882309F442C0F1
:1014D00080E480937C0080917A00806480937A001D
:1014E00080917A0086FDFCCF609178007091790040
:1014F0006115710521F06F3F83E07807C1F420E0AA
:1015000030E0A901609162037091630380916403EC
:10151000909165030E941A20181624F486EC91E03D
:101520000E94240A60E070E080E291EC0895072EAA
:10153000000C880B990B0E94941D20E030EC4FE7C3
:1015400054E40E94721F20E030E04AE753E40E9416
:10155000F31D089560E070E080EB91E408951F931F
:10156000CF93DF93EC018230910531F18330910507
:1015700009F448C0019761F468E271E080E091E00D
:101580000E941C0680E290E00E94A6011092810356
:10159000D0937E03C0937D030E94630228EE33E064
:1015A00040E050E00E9424203093800320937F038A
:1015B000DF91CF911F9108956DE171E080E091E09E
:1015C0000E941C060E946D098091810381608093B6
:1015D00081030E94630A20E030E048EC51E40E945D
:1015E0008D1D181654F060E070E0CB010E94F504E8
:1015F0008091810382608093810380E190E00E946A
:10160000A601C6CF62E171E080E091E00E941C0675
:1016100060E08FE00E9447011091810390E080E03C
:101620000E94A601166010938103B2CF2F923F92C1
:101630004F925F926F927F928F929F92AF92BF92E2
:10164000CF92DF92EF92FF92CF93DF9300D000D042
:10165000CDB7DEB70E9463024091820350918303AD
:101660009A01215031092230310560F14430510591
:1016700049F128EE33E040E050E00E9424208091C0
:101680007B0390917C03281B390B83E090E0203290
:101690004CE1340770F482E090E0283057E03507E1
:1016A00040F451E040E02C32314008F450E0852F06
:1016B000942F20917D0330917E032817390711F074
:1016C0000E94AF0AC0905603D0905703E090580391
:1016D000F09059030E9463026C197D098E099F09DD
:1016E000643F71408105910508F475C080910F0138
:1016F00081FF67C080910201882309F462C00E94C3
:10170000630A6B017C01E1EEF1E08491EAECF1E027
:1017100034913983E6EBF1E0B490712C612CBB205D
:10172000A1F081110E941E01EB2DF0E0EE0FFF1FD2
:10173000E85FFE4FA591B491EC9149814E2391E071
:1017400080E009F490E0692E782E0E9463024B013C
:101750005C0120E030E04CE853E4C701B6010E9490
:101760001A2065ED71E0181624F120906203309084
:101770006303409064035090650320E030E0A901CA
:10178000C201B1010E941A2018160CF047C020E0D7
:1017900030E040E751E4C201B1010E94061F9B0105
:1017A000AC01C701B6010E941A201816BCF567EFFC
:1017B00071E08EED91E00E9453088FEE91E00E945F
:1017C000240A0E9463026093560370935703809328
:1017D0005803909359030E94630A20E030E04AE7DF
:1017E00053E40E941A2018160CF09CC08FEF91E071
:1017F0000F900F900F900F90DF91CF91FF90EF908F
:10180000DF90CF90BF90AF909F908F907F906F9020
:101810005F904F903F902F900C94240A50910F01AD
:1018200059836A94672809F078C050FD1BC08092E4
:10183000070190920801A0920901B0920A0120E0EC
:1018400030E040E251E4C701B6010E94F31D0E945E
:10185000E41F70930C0160930B0199819160909348
:101860000F01AFCF20910D0130910E01A8EEB3E032
:101870000E94F61E69837A838B839C8340900701C4
:10188000509008016090090170900A010E94630263
:10189000641975098609970929813A814B815C8110
:1018A000621773078407950708F48BCF60910B01CB
:1018B00070910C01072E000C880B990B0E94941D4F
:1018C00020E030E040E251E40E94721F9B01AC0135
:1018D000C701B6010E94051F20E030E040E850E457
:1018E0000E948D1D62EE71E087FD63CF809207013B
:1018F00090920801A0920901B0920A0120E030E024
:1019000040E251E4C701B6010E94F31D0E94E41FAA
:1019100070930C0160930B0154CF39813E7F30935B
:101920000F014FCF0F900F900F900F90DF91CF913D
:10193000FF90EF90DF90CF90BF90AF909F908F90EF
:101940007F906F905F904F903F902F9008952F92CF
:101950003F924F925F926F927F928F929F92AF923F
:10196000BF92CF92DF92EF92FF920F931F93CF938C
:10197000DF93CDB7DEB72A970FB6F894DEBF0FBE60
:10198000CDBF1C017A83698329013A01EB82FC8275
:101990000D831E83AF82B886C986DA8660E00E9416
:1019A0002B04912C812CE981FA81099581112AC09F
:1019B000EBA1FCA1808191810197918380830E949A
:1019C000EA05C4018F739927892B19F4A8950E9401
:1019D000160BC1010E941004AF8CB8A0C9A0DAA0F8
:1019E000EF80F88409851A85A30192016B817C81BF
:1019F0008D819E810E949D030E94FE01FFEF8F1A40
:101A00009F0AD1CFE981FA810995882331F069E0F5
:101A100072E08DE092E00E94530861E0C1010E94F3
:101A20002B04912C812CEBA1FCA180819181019749
:101A3000918380830E94EA05C4018F739927892BC3
:101A400019F4A8950E94160BC1010E941004AF8CD6
:101A5000B8A0C9A0DAA0EF80F88409851A85A3018F
:101A600092016B817C818D819E810E949D030E94E9
:101A7000FE01FFEF8F1A9F0A88E5881682E098061C
:101A800091F62A960FB6F894DEBF0FBECDBFDF9158
:101A9000CF911F910F91FF90EF90DF90CF90BF906B
:101AA000AF909F908F907F906F905F904F903F90FE
:101AB0002F9008952F923F924F925F926F927F9254
:101AC0008F929F92AF92BF92CF92DF92EF92FF924E
:101AD0000F931F93CF93DF93CDB7DEB76C970FB6FD
:101AE000F894DEBF0FBECDBF2B013C012D873E8792
:101AF0004F87588BE98AFA8A0B8B1C8BAD8ABE8A7A
:101B0000CF8AD88E20E030E040EA52E40E94F31DF4
:101B10009F7720E030E040E05FE30E94061F0E94D4
:101B2000E41F698F7A8F8B8F9C8F298D3A8D3A872E
:101B3000298720E030E040EA52E46D857E858F857C
:101B400098890E94F31D9F7720E030E040E05FE33A
:101B50000E94061F0E94E41F69837A838B839C8303
:101B600089819A819C878B8720E030E048EC53E4A0
:101B7000C801B7010E94F31D9F7720E030E040E0EC
:101B80005FE30E94061F0E94E41F6D837E838F83A4
:101B900098872D803E80A12C20E4B22E2CE9C22E05
:101BA00025E4D22EE12CF12C08EC12E420E030E008
:101BB00040EA52E46D897E898F89988D0E949D0349
:101BC0004C01A12CB12C46E1C42E43E4D42EE12CCF
:101BD000F12C08E412E420E030E048EC53E46D8995
:101BE0007E898F89988D0E949D036C0191E09D8B69
:101BF00020E030E0A901C301B2010E941A2087FD54
:101C00001D8A6D8982E794E00E942B0411E020E098
:101C100030E0A9016D857E858F8598890E941A2004
:101C200087FD10E0612F8CE694E00E942B04FF24D6
:101C3000F39420E030E0A90169897A898B899C8935
:101C40000E941A2087FDF12C6F2D86E694E00E94F9
:101C50002B0499818A812B853C852215330514F448
:101C60009D818E81492E582E89859A854816590660
:101C700014F4498C5A8C9D89992309F465C021E09C
:101C800030E03A832983112309F463C001E010E0B6
:101C9000FF2009F461C0EE24E394F12C712C612C37
:101CA000641475040CF05CC00E94EA0529853A852D
:101CB000621673069CF482E794E00E941004C4014B
:101CC0000E94FE01809166039091670329813A8109
:101CD000820F931F90936703809366038B859C8587
:101CE000681679068CF48CE694E00E941004C40116
:101CF0000E94FE018091680390916903800F911FFB
:101D00009093690380936803621473048CF486E6ED
:101D100094E00E941004C6010E94FE0180916A03B3
:101D200090916B038E0D9F1D90936B0380936A03BC
:101D3000C3018F739927892B19F4A8950E94160B5C
:101D40009FEF691A790AACCF8FEF9FEF9A8389834F
:101D50009ACF0FEF1FEF9CCFEE24EA94FE2C9ECF7C
:101D60006C960FB6F894DEBF0FBECDBFDF91CF915A
:101D70001F910F91FF90EF90DF90CF90BF90AF90A9
:101D80009F908F907F906F905F904F903F902F909B
:101D90000895FF920F931F93CF93DF93CDB7DEB7D4
:101DA00068970FB6F894DEBF0FBECDBF01978E01C6
:101DB0000F5F1F4F8930910570F4FC01EE51F14F18
:101DC0000C944620070F0E0F150F1C0F230F2A0F20
:101DD000310F380F3F0F7F936F935F934F938CEFCB
:101DE00090E09F938F931F9288E18F931F930F939F
:101DF0000E946E190FB6F894DEBF0FBECDBFF8017A
:101E0000F12C8191882309F441C0F826FACF7F9301
:101E10006F935F934F9383EF90E0E3CF7F936F9344
:101E20005F934F938AEE90E0DCCF7F936F935F9345
:101E30004F9381EE90E0D5CF7F936F935F934F9355
:101E400088ED90E0CECF7F936F935F934F938FECAD
:101E500090E0C7CF7F936F935F934F9386EC90E0B2
:101E6000C0CF7F936F935F934F938DEB90E0B9CF8B
:101E70007F936F935F934F9384EB90E0B2CF7F9308
:101E80006F935F934F938BEA90E0ABCFC8010E94B2
:101E9000780588EA90E00E9462038F2D0E944B062D
:101EA00068960FB6F894DEBF0FBECDBFDF91CF911D
:101EB0001F910F91FF90089540E050E0BA010C94FB
:101EC000C90E1F920F920FB60F9211242F933F93BA
:101ED0008F939F93AF93BF938091C1039091C2035F
:101EE000A091C303B091C4033091C00323E0230F3A
:101EF0002D3758F50196A11DB11D2093C003809385
:101F0000C1039093C203A093C303B093C403809111
:101F1000C5039091C603A091C703B091C803019671
:101F2000A11DB11D8093C5039093C603A093C70361
:101F3000B093C803BF91AF919F918F913F912F9123
:101F40000F900FBE0F901F90189526E8230F029652
:101F5000A11DB11DD2CF1F920F920FB60F92112467
:101F60002F933F934F935F936F937F938F939F93A1
:101F7000AF93BF93EF93FF9389EC93E00E94F3023A
:101F8000FF91EF91BF91AF919F918F917F916F9151
:101F90005F914F913F912F910F900FBE0F901F9027
:101FA00018951F920F920FB60F9211242F938F93B3
:101FB0009F93EF93FF93E091D903F091DA0380812F
:101FC000E091DF03F091E00382FD1BC090818091DE
:101FD000E2038F5F8F732091E303821741F0E0915A
:101FE000E203F0E0E753FC4F958F8093E203FF910B
:101FF000EF919F918F912F910F900FBE0F901F9097
:1020000018958081F4CFE9ECF3E01382128288EE18
:1020100093E0A0E0B0E084839583A683B78387E54F
:1020200091E09183808385EC90E09587848784ECB0
:1020300090E09787868780EC90E0918B808B81EC95
:1020400090E0938B828B82EC90E0958B848B86EC76
:1020500090E0978B868B118E128E138E148EE2E792
:10206000F4E029E631E03183208382E0828385E059
:1020700083838FEF8483ECE6F4E03183208393E065
:10208000928396E093838483E6E6F4E031832083B1
:1020900094E0928397E093838483E8E7F4E03183CC
:1020A00020839CE092839DE0938384830895CF9363
:1020B000DF93CDB7DEB7E8970FB6F894DEBF0FBE5B
:1020C000CDBF789484B5826084BD84B5816084BDC1
:1020D00085B5826085BD85B5816085BD80916E00C6
:1020E000816080936E0010928100809181008260F7
:1020F0008093810080918100816080938100809134
:1021000080008160809380008091B1008460809322
:10211000B1008091B00081608093B00080917A001E
:10212000846080937A0080917A00826080937A0044
:1021300080917A00816080937A0080917A00806833
:1021400080937A001092C10040E052EC61E070E0B0
:1021500080E091E00E9487046DE671E080E091E00C
:102160000E941C0662E671E080E091E00E94570444
:102170006AE272E080E091E00E942B0666E571E081
:1021800080E091E00E9457044FEF5FEFBA0180E0DA
:1021900091E00E94460662E571E080E091E00E94D5
:1021A000570440E058E060E070E080E091E00E9479
:1021B000500788E19FE00FB6F894A89580936000DF
:1021C0000FBE909360000E94630228EE33E040E06F
:1021D00050E00E94242030937C0320937B031092D4
:1021E0007E0310927D033093800320937F0310922F
:1021F000810310928303109282030E94340560E0F1
:1022000088E794E00E94350461E088E794E00E944A
:10221000070461E08FE00E94750160E08FE00E949A
:10222000470189E0E0E1F1E0A7E0B1E001900D9223
:102230008A95E1F761E080E10E94750161E080E14B
:102240000E94750160E080E10E94470162E089E040
:102250000E94750162E08AE00E94750162E08BE0F5
:102260000E9475011092020184B7877F84BF0FB668
:10227000F894A89580916000886180936000109226
:1022800060000FBE62E471E080E091E00E941C06F5
:102290000E9463026093BB037093BC038093BD03F1
:1022A0009093BE03CE0101961C01A8958091BF03B7
:1022B000811123C0C090BB03D090BC03E090BD034C
:1022C000F090BE030E9463026C197D098E099F097C
:1022D000683873418105910580F063E871E080E022
:1022E00091E00E941C060E9463026093BB037093FE
:1022F000BC038093BD039093BE0389EC93E00E94DE
:10230000D302892B09F46BC789EC93E00E94B102D8
:10231000E091BA038A3019F08D3009F050C7EE23EE
:1023200061F3F0E0E657FC4F108280918A0381341C
:1023300069F480918B03082E000C990BC0970A97C3
:1023400078F51092BA0310928A03D7CF8E3441F5F4
:102350008BE893E00E942A196DA77EA78FA798AB00
:1023600060E270E08AE893E00E944C208C010097C4
:10237000E1F0FC01E1808281F12C882329F0C80181
:1023800002960E940C19F82E60E270E0C8010196D6
:102390000E944C208C010F5F1F4F892B51F407C006
:1023A0001DA61EA61FA618AADBCFE12CF12C03E761
:1023B00011E06AE270E08AE893E00E944C20FC01A0
:1023C000EA58F340009739F4EAE8F3E0019000207E
:1023D000E9F7EB58F340E657FC4FAF014A5853403A
:1023E00023E0EA38F20709F40BC722912032A9F35F
:1023F000EAE8F3E0D12C9F012A583340241735072F
:1024000038F1009709F000C780E08D11D1C68091A6
:102410008903811105C081E0809389038093BF0304
:1024200040918503509186036091870370918803E2
:102430008DA59EA5AFA5B8A9481759076A077B07C0
:1024400051F4AC01BD0183E090E00E94C90E79CF48
:102450002191D226D0CF4F5F5F4F6F4F7F4F8DA519
:102460009EA5AFA5B8A9481759076A077B0719F0B9
:1024700084E090E0EACF8DA59EA5AFA5B8A9809392
:10248000850390938603A0938703B09388030E94EB
:10249000630228EE33E040E050E00E9424203093B5
:1024A0007C0320937B0380917D0390917E03892B95
:1024B00011F00E94520581E0809384030E94630220
:1024C00060935A0370935B0380935C0390935D0366
:1024D00096E4E91609F4A1C49E158CF0A1E4EA166D
:1024E00009F45DC2B5E4EB1609F45CC64DA55EA522
:1024F0006FA578A985E090E00E94C90EF8C0E3E5D9
:10250000EE1609F4AEC4F4E5EF1609F4E7C32DE4C2
:10251000E212ECCF80918203909183038430910585
:1025200019F5FF2009F438C286E090E00E945C0FA4
:1025300080916C038823A9F08FE693E09F938F939B
:1025400088E692E09F938F931F9280E18F933F9252
:102550002F920E946620B10181ED91E00E94530804
:1025600069C083E791E0EACFABE0FA1609F4D6C080
:10257000AF1550F0FF2009F40FC2BAE0FB1609F4C2
:102580005FC06BE572E060C0E3E6FE1609F490C13F
:10259000F2E7FF12F6CF86E0E6E6F3E0DE01919681
:1025A00001900D928A95E1F76DA17EA1072E000C96
:1025B000880B990B0E94941D20E030E048EC53E416
:1025C0000E94721F9F938F937F936F936BA17CA147
:1025D000072E000C880B990B0E94941D20E030E020
:1025E00040EA52E40E94721F9F938F937F936F93F0
:1025F00069A17AA1072E000C880B990B0E94941DEB
:1026000020E030E040EA52E40E94721F9F938F93D3
:102610007F936F9388E492E09F938F931F9280E261
:102620008F933F922F920E946620B10187E592E03E
:102630000E9483070FB6F894DEBF0FBECDBF57C010
:10264000029729F066E372E081ED91E0F2C268E55D
:1026500070E0C8010E944C203C0169E570E0C801AF
:102660000E944C206C016AE570E0C8010E944C2079
:102670007C0166E470E0C8010E944C208C0161146A
:102680007104F1F1C30101960E9408192B013C016C
:10269000C114D104C9F1C60101960E94081969ABA1
:1026A0007AAB8BAB9CABE114F10499F1C7010196B5
:1026B0000E9408196DAB7EAB8FAB98AF60E070E005
:1026C0008AE794E40115110521F0C80101960E94E2
:1026D00008195B016C01EDA8FEA80FA918AD29A986
:1026E0003AA94BA95CA9C301B2010E945A0D1092EC
:1026F00084034DA55EA56FA578A990E080E0A5CEE6
:10270000412C512C3201C4CF19AA1AAA1BAA1CAA07
:10271000CACF1DAA1EAA1FAA18AED0CF029709F0D1
:1027200091CF68E570E0C8010E944C203C0169E54A
:1027300070E0C8010E944C206C016AE570E0C8019D
:102740000E944C207C0166E470E0C8010E944C208D
:102750008C01812C912C54016114710431F0C3015E
:1027600001960E9408194B015C01412C512C320149
:10277000C114D10431F0C60101960E9408192B0141
:102780003C01E114F10409F486C0C70101960E94DE
:1027900008196B017C010115110509F480C0C801FD
:1027A00001960E94081969AB7AAB8BAB9CAB86E0B3
:1027B000E6E6F3E0DE01979601900D928A95E1F747
:1027C00020E030E048EC53E4C701B6010E94F31D5D
:1027D0006B017C016BA57CA5072E000C880B990B67
:1027E0000E94941D9B01AC01C701B6010E94051F08
:1027F00020E030E048EC53E40E94721F6DAB7EABEA
:102800008FAB98AF20E030E040EA52E4C301B20160
:102810000E94F31D6B017C0169A57AA5072E000CAF
:10282000880B990B0E94941D9B01AC01C701B60156
:102830000E94051F20E030E040EA52E40E94721F2F
:102840002B013C0120E030E040EA52E4C501B40134
:102850000E94F31D6B017C016FA178A5072E000C6F
:10286000880B990B0E94941D9B01AC01C701B60116
:102870000E94051F20E030E040EA52E40E94721FEF
:10288000A9A8BAA8CBA8DCA8EDA8FEA80FA918ADE6
:10289000A30192012ACFC12CD12C76017CCF80E0FC
:1028A00090E0AAE7B4E489AB9AABABABBCAB7FCF0B
:1028B00068E570E0C8010E944C202C0169E570E0D9
:1028C000C8010E944C203C016AE570E0C8010E94EA
:1028D0004C205C0166E470E0C8010E944C20C12CD1
:1028E000D12C58E4E52E54E4F52E009729F00196FA
:1028F0000E9408196B017C014528E1F025E42F9323
:102900002CE92F9320E42F931F92812C912C48ECDB
:10291000A42E42E4B42E00E510E0A50194016FE678
:1029200072E082E794E00E9496080F900F900F905B
:102930000F90DDCE6728B1F025E42F932CE92F937B
:1029400020E42F931F92812C912C38ECA32E32E49B
:10295000B32E00E510E0A501940161E772E08CE67A
:1029600094E0E1CFAB28A9F023E42F9326E12F9345
:102970001F921F92812C912C28E4A22E22E4B22EC9
:1029800000E911E0A501940163E772E086E694E0B6
:10299000CACF60E472E058CE0E946D09A8CEB0E1C3
:1029A000BF1508F498C1EF2DF0E0E752FB4E0C94F0
:1029B000462061166B166B166B166B166B166B1634
:1029C0006B166B166B16EA141515511595150D1629
:1029D0001C16461665E470E0C8010E944C207C017C
:1029E00066E470E0C8010E944C208C01E114F104FF
:1029F000C1F0C70101960E9408196B017C0120E01B
:102A000030E04AE754E40115110531F0C8010196A0
:102A10000E9408199B01AC01C701B6010E948209FE
:102A200066CEC12CD12C7601EACF65E470E0C801F6
:102A30000E944C207C0166E470E0C8010E944C209A
:102A40008C01E114F10439F1C70101960E940819C3
:102A50006B017C0120E030E041EE54E401151105EA
:102A600031F0C80101960E9408199B01AC01E8945D
:102A7000F7F8C701B60190580E948209A701960194
:102A800060915E0370915F03809160039091610398
:102A90000E94051F3AC0C12CD12CE12C90E4F92EE4
:102AA000D9CF65E470E0C8010E944C207C0166E447
:102AB00070E0C8010E944C208C01E114F10471F116
:102AC000C70101960E9408196B017C0120E030E0EB
:102AD0004AE754E40115110531F0C80101960E943E
:102AE00008199B01AC01E894F7F8C701B6010E94F0
:102AF0008209A701960160915E0370915F03809146
:102B00006003909161030E94061F60935E037093BF
:102B10005F038093600390936103E9CDC12CD12CB6
:102B200080EAE82E80E4F82ED1CF63E570E0C8019A
:102B30000E944C206C0164E470E0C8010E944C20AB
:102B40007C0104E610E0C114D10429F0C60101960D
:102B50000E940C198C01E114F104D1F1C701019616
:102B60000E940C19892BA1F5F12C85E192E09F932D
:102B70008F931F930F9385E692E09F938F931F92FD
:102B800088E18F933F922F920E946620B10184EBDF
:102B900091E00E9453086F2D88E794E00E942B0477
:102BA0000FB6F894DEBF0FBECDBFD12CC12CC0161E
:102BB000D1069CF40E94EA0588E794E00E94100484
:102BC0008BE193E00197F1F7FFEFCF1ADF0AEFCF28
:102BD000FF24F39481E192E0CACF80905E0390904D
:102BE0005F03A0906003B0906103B801110F880BE0
:102BF000990B0E94941D2091030130910401409192
:102C00000501509106010E94721F9B01AC01C50194
:102C1000B401FF2009F43CCF76CF10925E031092EE
:102C20005F0310926003109261036BE672E08FE61F
:102C300092E00E9453085BCD63E570E0C8010E94FA
:102C40004C20009709F453CD01960E9408199B016E
:102C5000AC01CB01DA018093030190930401A093AE
:102C60000501B09306015F934F933F932F9382E545
:102C700092E09F938F931F9280E18F933F922F92C8
:102C80000E946620B10183E792E068CC80916103E5
:102C90008F93809160038F9380915F038F938091D6
:102CA0005E038F9382E592E09F938F931F9280E162
:102CB0008F933F922F920E946620B10187E792E0A6
:102CC0004DCC60E088E794E00E94070460EB71E07F
:102CD00084EB91E0AECF6BE772E0B6CC80918203DB
:102CE00090918303049731F5FF2009F48CC0B4E17F
:102CF00087E090E0FB12BAC1109162030091630378
:102D0000F0906403E09065030E94630AEF92FF92E3
:102D10000F931F939F938F937F936F9382E992E01A
:102D20009F938F931F9280E18F933F922F920E94E7
:102D3000662048C0E4E1FE16F9F2EF1548F0FF20E6
:102D400009F461C0FAE0FF16E9F060EA72E07CCCB9
:102D500029E1F216D9F18EE1F812F7CF63E570E0C0
:102D6000C8010E944C20009709F4C1CC01960E9432
:102D70000C1920910F01892B09F43FC02260209388
:102D80000F0128C064E570E0C8010E944C20009744
:102D900009F4ADCC01960E940819162F072FF82EC2
:102DA000E92E0E94F504EF92FF920F931F9385E89E
:102DB00092E09F938F931F9280E18F933F922F9287
:102DC0000E946620B1018EE892E032CC80910F0122
:102DD00081FF16C089E192E09F938F9388E692E08D
:102DE0009F938F931F9288E08F933F922F920E9420
:102DF0006620B1018CE992E01BCC2D7F20930F015E
:102E00008CE192E0E9CF60E070E0CB010E94F50434
:102E10006CE172E08EE892E00CCFBAE0FB1267CC76
:102E200063E570E0C8010E944C20009709F45FCC74
:102E300001960E940C198C011127C8010E94A6015D
:102E40001F930F93ECE0F3E0FF93EF931F9288E062
:102E50008F933F922F920E946620B1018AEA92E0FE
:102E60007DCB9AE09F1508F49AC1EF2DF0E0E55C68
:102E7000F84E0C9446204617CF17E017F2170418A7
:102E800015181E183C187918AB18BD1880918203CC
:102E900090918303892B09F07FC060EB72E08DE095
:102EA00092E00E94530881E090E090938303809326
:102EB00082036EEA72E08DE092E00E94530886E69B
:102EC00093E09F938F9355E4752E7F926CE9862E45
:102ED0008F9270E4972E9F921F92A12CB12CE8EC58
:102EE000CE2EE2E4DE2EE12CF12C06E114E420E00B
:102EF00030E040EA52E46FE672E082E794E00E943C
:102F0000A70C66EB72E08DE092E00E94530888E621
:102F100093E09F938F937F928F929F921F9220E0D6
:102F200030E040EA52E461E772E08CE694E00E940F
:102F3000A70C6EEB72E08DE092E00E9453088AE6E7
:102F400093E09F938F9383E48F9386E18F931F92F7
:102F50001F92A12CB12CA8E4CA2EA2E4DA2EE12CF7
:102F6000F12C08E413E420E030E048EC53E463E79C
:102F700072E086E694E00E94A70C67EA71E08DE0BB
:102F800092E00E945308109283031092820366EC31
:102F900072E08DE092E0E2CA6BEC72E055CB80917A
:102FA000820390918303892BB9F782E090E090939C
:102FB0008303809382036CED72E084ED92E039CE5E
:102FC000809182039091830368ED72E0029709F08B
:102FD0003BCB83E090E0909383038093820361EF87
:102FE00072E0EBCF80918203909183036DEE72E0EB
:102FF000039709F029CB82E090E0909383038093BC
:10300000820365EE72E0D9CF68EF72E08FE692E05E
:103010000E94530888E198E00FB6F894A895809331
:1030200060000FBE90936000FFCF62E073E08FE618
:1030300092E00E9453080C94000059CB80916C03DD
:103040008823B9F010926C0310926E0310926D03F6
:1030500010926F038091820390918303049749F447
:10306000109283031092820388E090E00E945C0F2C
:103070003ECB89E090E0FACF80916C03882391F1F8
:103080000E94630228EE33E040E050E00E942420DA
:1030900080916D0390916E03281B390B41095109F2
:1030A000A8EEB3E00E94B41E20916C032223B9F075
:1030B0002FE633E09F938F937F936F933F932F93EC
:1030C000E9E0F3E0FF93EF931F9280E18F933F924B
:1030D0002F920E946620B10181ED91E0A9CA23E7F9
:1030E00031E0E8CF6FE073E081ED91E00E9483076B
:1030F000FECA0E94630228EE33E040E050E00E94E6
:10310000242080917B0390917C03281B390B8091B4
:103110007D0390917E0384309105D0F4880F991F30
:10312000FC01EF5BFE4F808191813F932F939F9332
:103130008F93A9E0B3E0BF93AF931F9280E18F9389
:103140003F922F920E946620B10184E193E006CA6B
:1031500080E292E0EACF60E570E0C8010E944C2076
:10316000009709F4C4CA01960E940C198430910595
:1031700008F0BDCA0E94AF0ABACA8091820390913A
:10318000830362E272E08530910508F016CF880F64
:10319000991FFC01E75BFE4F608171810ECF68E1F2
:1031A00073E052CA9AE0F912A2CA0E941E089FCA8E
:1031B0004DA55EA56FA578A981E090E046C9EF32E4
:1031C00028F082E090E00E945C0FBBC891E09E0F67
:1031D0009093BA03F0E0E657FC4F80838EC80E94BC
:1031E000160B0E94EA0580E090E0892B09F45DC887
:1031F0000E94DF02882309F458C80E94000055C8C5
:10320000D12C009709F403C901960E940C19FDC83E
:10321000662777270C94781BFC0188279927E89468
:1032200021912032E9F3293010F02E30C8F32B32EF
:1032300041F02D3239F4689404C00E946619820F5F
:10324000911D219120532A30C0F31EF49095819551
:103250009F4F08951F93FC0199278827BC01E8948C
:1032600011911032E9F3193010F01E30C8F31B32FF
:1032700051F01D3249F4689406C00E945119610F43
:10328000711D811D911D119110531A30B0F33EF440
:1032900090958095709561957F4F8F4F9F4F1F91AF
:1032A0000895592F482F372F262F660F771F881F15
:1032B000991F660F771F881F991F620F731F841F46
:1032C000951F660F771F881F991F08957AE0979FB3
:1032D000902D879F802D910D11240895AEE0B0E0D0
:1032E000E4E7F9E10C94CD1E0D891E898F89988D34
:1032F0002EE02C831A83098397FF02C080E090E8B8
:1033000001979E838D83AE01455E5F4F698D7A8DF7
:10331000CE0101960E949E194D815E8157FD0AC023
:103320002F813885421753070CF49A01020F131F9F
:10333000F80110822E96E4E00C94E91EABE0B0E0B8
:10334000E4EAF9E10C94BF1E7C013B018A01FC0117
:1033500017821682838181FFC8C1CE0101965C016C
:10336000F7019381F30193FD859193FF81913F01D3
:10337000882309F453C1853239F493FD859193FF75
:1033800081913F01853229F4B70190E00E94FF1C32
:10339000E7CF912C212C312CFFE1F31538F08B3243
:1033A00011F190F4803209F1833229F137FC3CC0ED
:1033B00020ED280F2A3050F536FE20C08AE0989E76
:1033C000200D1124922E06C08D3291F0803371F7BA
:1033D000689430F8F30193FD859193FF81913F014B
:1033E0008111DACF21C0689431F8689432F8F2CFB5
:1033F000689433F8EFCF689434F8ECCFEAE02E9E6F
:10340000200D1124222E689435F8E4CF8E3229F451
:1034100036FC04C1689436F8DDCF8C3619F4689414
:1034200037F8D8CF8836B1F2982F9F7D95549330D6
:10343000E0F08336A1F18337C1F1833509F063C031
:103440002801F2E04F0E511CF801C080D180692D97
:1034500070E036FC02C06FEF7FEFC6010E94E91CEE
:103460004C01689437F882010AC00C5F1F4FFFE3DC
:10347000F98388248394912C6501E89437F833FE0E
:103480002DC0522C8114910471F5552009F468CF98
:10349000B70180E290E00E94FF1C5A94F6CFF80139
:1034A000808189830E5F1F4FE4CF2801F2E04F0E29
:1034B000511CF801C080D180692D70E036FC02C03B
:1034C0006FEF7FEFC6010E94F41C4C018201D5CF43
:1034D000B70180E290E00E94FF1C2A94281419048E
:1034E00009F0B0F7CECFF60137FC859137FE819118
:1034F0006F01B70190E00E94FF1C51105A94F1E057
:103500008F1A9108BFCF843619F0893609F077C039
:10351000F80137FE6BC060817181828193810C5FFD
:103520001F4FF32DFF763F2E97FF09C09095809592
:10353000709561957F4F8F4F9F4F689437F82AE0C1
:1035400030E0A5010E942F1DC82ECA188C2C432CD8
:1035500036FE0CC0E89440F8C91440F434FE05C0AF
:1035600032FC03C0F32DFE7E4F2E892C44FE95C005
:10357000FE01EC0DF11D8081803309F087C0242D00
:10358000297E422E842D8870582E43FC95C040FE23
:103590008FC09C2C821418F42C0C922C981844FE8A
:1035A00091C0B70180E390E00E94FF1C42FE09C079
:1035B00088E790E041FE02C088E590E0B7010E94F4
:1035C000FF1CC91408F48AC0CA94D12C9FEFC91AF1
:1035D000D90ACA0CDB1CF60182916F01B70190E099
:1035E0000E94FF1CAC14BD04B1F74FCF6081718104
:1035F000072E000C880B990B0E5F1F4F92CFD32C18
:10360000E894D4F82AE030E0853739F1232D297F7A
:10361000D22E8F3601F148F48835A9F0F701868162
:1036200097812B96E2E10C94DB1E803749F08837B6
:10363000A9F7D4FE02C06894D2F820E130E00DC0B2
:103640006894D4F8F6CF34FE03C0822F8660D82E5B
:1036500020E132E002C028E030E0F801D7FE0FC0E0
:1036600060817181828193810C5F1F4FA5010E944F
:103670002F1DC82ECA183D2CE89437F867CF6081FB
:10368000718190E080E00E5F1F4FF0CF42FC02C0DE
:10369000839478CF8394839475CF842D867809F4AE
:1036A00071CFF6CFB70180E290E00E94FF1C8394B7
:1036B0008214C0F3512C73CF522C5818821408F482
:1036C0006ECFF8CF842D867809F47BCF8BE241FE54
:1036D00080E247FC8DE2B70190E071CFB70180E353
:1036E00090E00E94FF1C9A946CCF8FEF9FEF99CFD0
:1036F000B0E0A0E0EEE7FBE10C94C51E5C017B01AD
:103700006115710519F0DB018D939C9385010F5FA5
:103710001F4FF501D0818D2F90E00E94C81C6C01D5
:10372000892BB9F5DD32B9F50F5F1F4FD501119621
:10373000DC91C1E05801F1E0AF1AB10843E050E07C
:1037400060E770E0C5010E94D11C892B69F5680112
:1037500082E0C80ED11C45E050E06BE670E0C60187
:103760000E94D11C892B21F4680197E0C90ED11C5D
:10377000E114F10419F0D701CD92DC9260E070E021
:1037800080E89FEFC111FFC060E070E080E89FE734
:10379000FAC05801BBCFDB3229F485010E5F1F4F01
:1037A000F501D181C0E0C6CF43E050E068E670E0AB
:1037B000C5010E94D11C892BE9F0F80110E000E05E
:1037C00020E030E0A9015F01B0ED8B2E8D0E89E085
:1037D0008815C8F19C2E689491F88C2F8870C2FFD0
:1037E00016C0811102C00F5F1F4F3196D501DC91C9
:1037F000C92DE9CFE114F10429F00E5F1F4FF70145
:103800001183008360E070E080EC9FE7BCC08823F8
:1038100011F001501109A5E0B0E00E94B41E9B0117
:10382000AC01220F331F441F551F280D311D411DB0
:10383000511D283999E93907490799E15907A8F233
:10384000C6609C2ED2CFAEEF8A1206C0C3FD3CC02C
:103850009C2E689493F8C9CFDF7DD534A9F580817B
:103860008D3239F4C061DF011296818162E070E02F
:1038700006C0DF018B32C1F3119661E070E0805326
:103880005D01A61AB70A8A30F8F4E0E8CE16ECE03B
:10389000DE065CF4B601660F771F660F771FC60E53
:1038A000D71ECC0CDD1CC80ED11C5D01FFEFAF1A7A
:1038B000BF0A8C9180538A30A8F1C4FF03C0D19411
:1038C000C194D1080C0D1D1DC1FF09C0E114F10404
:1038D00031F081E0A81AB108D701AD92BC92CA01BB
:1038E000B9010E94921DC370C33009F490584B0176
:1038F0005C0120E030E0A9010E948D1D882309F4BD
:1039000040C0CFE9D0E017FF05C01195019511091E
:10391000C7E8D0E06E01B8E1CB1AD10880E2E82E0A
:10392000F12C0FC0D501B1CFFE0125913591459104
:1039300054910E191F09C501B4010E94F31D4B01DA
:103940005C01D501C4010E151F0574F72497F59489
:10395000E794CC16DD06A9F78A2F880F8B2F881FD6
:103960008F3F49F020E030E0A901C501B4010E9479
:103970008D1D811106C082E290E090937F048093B8
:103980007E04C501B401CDB7DEB7ECE00C94E11EB6
:1039900091110C94601E803219F089508550C8F73F
:1039A0000895FB01DC014150504088F08D91813435
:1039B0001CF08B350CF4805E659161341CF06B3526
:1039C0000CF4605E861B611171F3990B0895881BDE
:1039D000FCCFFC010590615070400110D8F7809534
:1039E00090958E0F9F1F0895FC01615070400190CB
:1039F0000110D8F7809590958E0F9F1F08950F9313
:103A00001F93CF93DF93182F092FEB018B8181FD3B
:103A100009C01FEF0FEF812F902FDF91CF911F91E2
:103A20000F91089582FF14C02E813F818C819D816A
:103A3000281739073CF4E881F981CF010196998371
:103A4000888310838E819F8101969F838E83E3CF2D
:103A5000E885F985812F0995892BA1F3DACFFA0141
:103A6000AA27283051F1203181F1E8946F936E7FBD
:103A70006E5F7F4F8F4F9F4FAF4FB1E03ED0B4E0AE
:103A80003CD0670F781F891F9A1FA11D680F791FEF
:103A90008A1F911DA11D6A0F711D811D911DA11D00
:103AA00020D009F468943F912AE0269F1124301910
:103AB000305D3193DEF6CF010895462F4770405DAB
:103AC0004193B3E00FD0C9F7F6CF462F4F70405D5A
:103AD0004A3318F0495D31FD4052419302D0A9F7B5
:103AE000EACFB4E0A6959795879577956795BA95AF
:103AF000C9F700976105710508959B01AC010A2E75
:103B000006945795479537952795BA95C9F7620F4B
:103B1000731F841F951FA01D08950E94CF1D08F4D8
:103B200081E00895E89409C097FB3EF49095809554
:103B3000709561957F4F8F4F9F4F9923A9F0F92F73
:103B400096E9BB279395F695879577956795B795F1
:103B5000F111F8CFFAF4BB0F11F460FF1BC06F5FD7
:103B60007F4F8F4F9F4F16C0882311F096E911C0E9
:103B7000772321F09EE8872F762F05C0662371F00A
:103B800096E8862F70E060E02AF09A95660F771F1E
:103B9000881FDAF7880F9695879597F90895990FFA
:103BA0000008550FAA0BE0E8FEEF16161706E80707
:103BB000F907C0F012161306E407F50798F0621B28
:103BC000730B840B950B39F40A2661F0232B242BFD
:103BD000252B21F408950A2609F4A140A6958FEF1C
:103BE000811D811D08950E94061E0C947A1E0E945C
:103BF0006C1E38F00E94731E20F0952311F00C9477
:103C0000631E0C94691E11240C94AE1E0E948B1E20
:103C100070F3959FC1F3950F50E0551F629FF0011F
:103C2000729FBB27F00DB11D639FAA27F00DB11D38
:103C3000AA1F649F6627B00DA11D661F829F2227C1
:103C4000B00DA11D621F739FB00DA11D621F839F48
:103C5000A00D611D221F749F3327A00D611D231F1E
:103C6000849F600D211D822F762F6A2F11249F576C
:103C700050409AF0F1F088234AF0EE0FFF1FBB1F6F
:103C8000661F771F881F91505040A9F79E3F51052E
:103C900080F00C94631E0C94AE1E5F3FE4F3983EDC
:103CA000D4F3869577956795B795F795E7959F5FD8
:103CB000C1F7FE2B880F911D9695879597F908956A
:103CC00099278827089597F99F6780E870E060E05A
:103CD00008959FEF80EC089500240A9416161706A5
:103CE00018060906089500240A94121613061406ED
:103CF00005060895092E0394000C11F4882352F050
:103D0000BB0F40F4BF2B11F460FF04C06F5F7F4F07
:103D10008F4F9F4F089557FD9058440F551F59F0EE
:103D20005F3F71F04795880F97FB991F61F09F3FA8
:103D300079F087950895121613061406551FF2CFD1
:103D40004695F1DF08C0161617061806991FF1CF21
:103D500086957105610508940895E894BB27662748
:103D60007727CB0197F908950E94F61EA59F900D25
:103D7000B49F900DA49F800D911D112408952F9242
:103D80003F924F925F926F927F928F929F92AF92EB
:103D9000BF92CF92DF92EF92FF920F931F93CF9338
:103DA000DF93CDB7DEB7CA1BDB0B0FB6F894DEBFCF
:103DB0000FBECDBF09942A88398848885F846E84F5
:103DC0007D848C849B84AA84B984C884DF80EE803F
:103DD000FD800C811B81AA81B981CE0FD11D0FB648
:103DE000F894DEBF0FBECDBFED010895A29FB001D4
:103DF000B39FC001A39F700D811D1124911DB29F1F
:103E0000700D811D1124911D08955058BB27AA27BC
:103E10000E941D1F0C947A1E0E946C1E38F00E9496
:103E2000731E20F039F49F3F19F426F40C94691E98
:103E30000EF4E095E7FB0C94631EE92F0E948B1EA5
:103E400058F3BA17620773078407950720F079F4CF
:103E5000A6F50C94AD1E0EF4E0950B2EBA2FA02DF6
:103E60000B01B90190010C01CA01A0011124FF2727
:103E7000591B99F0593F50F4503E68F11A16F04022
:103E8000A22F232F342F4427585FF3CF4695379521
:103E90002795A795F0405395C9F77EF41F16BA0BE6
:103EA000620B730B840BBAF09150A1F0FF0FBB1F94
:103EB000661F771F881FC2F70EC0BA0F621F731FDD
:103EC000841F48F4879577956795B795F7959E3F3A
:103ED00008F0B0CF9395880F08F09927EE0F9795CB
:103EE000879508950E94861F0C947A1E0E94731E67
:103EF00058F00E946C1E40F029F45F3F29F00C94AA
:103F0000631E51110C94AE1E0C94691E0E948B1EF0
:103F100068F39923B1F3552391F3951B550BBB27F8
:103F2000AA2762177307840738F09F5F5F4F220F3D
:103F3000331F441FAA1FA9F335D00E2E3AF0E0E834
:103F400032D091505040E695001CCAF72BD0FE2F7E
:103F500029D0660F771F881FBB1F26173707480712
:103F6000AB07B0E809F0BB0B802DBF01FF279358CA
:103F70005F4F3AF09E3F510578F00C94631E0C940D
:103F8000AE1E5F3FE4F3983ED4F386957795679530
:103F9000B795F7959F5FC9F7880F911D96958795FF
:103FA00097F90895E1E0660F771F881FBB1F62171E
:103FB00073078407BA0720F0621B730B840BBA0BDC
:103FC000EE1F88F7E09508950E94EB1F6894B111E9
:103FD0000C94AE1E08950E94931E88F09F5798F08F
:103FE000B92F9927B751B0F0E1F0660F771F881FFE
:103FF000991F1AF0BA95C9F714C0B13091F00E9418
:10400000AD1EB1E008950C94AD1E672F782F882760
:10401000B85F39F0B93FCCF3869577956795B3953E
:10402000D9F73EF490958095709561957F4F8F4FAD
:104030009F4F08950E94CF1D08F48FEF08950E94AE
:10404000CF1D880B990B0895A1E21A2EAA1BBB1B4A
:10405000FD010DC0AA1FBB1FEE1FFF1FA217B30754
:10406000E407F50720F0A21BB30BE40BF50B661F6A
:10407000771F881F991F1A9469F76095709580952E
:1040800090959B01AC01BD01CF010895EE0FFF1F7C
:104090000590F491E02D0994FC018191861721F09F
:1040A0008823D9F7992708953197CF010895FB0107
:1040B000DC014150504048F001900D920020C9F7BA
:1040C00001C01D9241505040E0F70895AEE0B0E0CD
:1040D000ECE6F0E20C94CD1E0D891E898F89988D37
:1040E00026E02C831A83098397FF02C080E090E8C2
:1040F00001979E838D83AE01455E5F4F698D7A8DFA
:10410000CE0101960E949E194D815E8157FD0AC025
:104110002F813885421753070CF49A01020F131FA1
:10412000F80110822E96E4E00C94E91EF894FFCF7B
:104130001D01010000A04200000000000028000254
:104140000000000000002800020000000087046A50
:1041500004660462045E045A043E062B0679076175
:10416000074B073A07460650075304510457041CEF
:1041700006220329032E033403290339034003498C
:104180000350030000000015037502A2027D03D353
:1041900002B102C5020000000035042B0410040720
:1041A000040D0A006E616E00696E66006F7666002F
:1041B0004352542025732025730025642025642054
:1041C000256400454E44004449470055505F25642E
:1041D00000444E5F256400434F4D504C455445000C
:1041E000454D470053545000252E326620252E3071
:1041F000660045585400544845524D4953544F5257
:104200005F455252004D41585F54454D5000414C5E
:104210004D00484541545F54494D454F5554005455
:104220004845524D414C5F52554E415741590054FB
:10423000454D505F484947480048495400484F4D54
:104240000046574400425744004F4E004F46460038
:104250003F00556E6B6E6F776E0041726475696ECC
:104260006F2041565200494E565F53544154450009
:104270004E4F5F4158495300252E326620252E327D
:104280006620252E326600504F5300554E4B5F4D31
:10429000434F444500256420257300302E300052E2
:1042A00053540053504D0045504F00554E4B5F4105
:1042B000434F4445005345545F252E316600544D0D
:1042C0005000252E316620252E31660050525400B4
:1042D000554E4B5F54434F44450046414E00585F96
:1042E000535441525400595F5354415254005A5F41
:1042F000535441525400444F4E45004E4F545F4971
:10430000444C4500535441004E4F545F5052494E67
:1043100054494E4700524553554D4544004E4F5465
:104320005F50415553454400454D455247454E4326
:10433000590042525554414C002573202575004EBA
:104340004F4E450050575200554E4B5F53434F441C
:1043500045004163746976650049646C6500536C7F
:10436000656570004465657000486F6D696E670033
:104370005072696E74696E67005061757365640090
:064380004572726F72002D
:00000001FF
